{
  "contractName": "ClarityInCharity",
  "abi": [
    {
      "constant": true,
      "inputs": [
        {
          "internalType": "uint256",
          "name": "",
          "type": "uint256"
        }
      ],
      "name": "projects",
      "outputs": [
        {
          "internalType": "uint256",
          "name": "projectID",
          "type": "uint256"
        },
        {
          "internalType": "string",
          "name": "name",
          "type": "string"
        },
        {
          "internalType": "string",
          "name": "description",
          "type": "string"
        },
        {
          "internalType": "uint256",
          "name": "requiredAmount",
          "type": "uint256"
        },
        {
          "internalType": "uint256",
          "name": "DAPPtokenBalance",
          "type": "uint256"
        },
        {
          "internalType": "address",
          "name": "Address",
          "type": "address"
        },
        {
          "internalType": "bool",
          "name": "completed",
          "type": "bool"
        }
      ],
      "payable": false,
      "stateMutability": "view",
      "type": "function"
    },
    {
      "constant": false,
      "inputs": [
        {
          "internalType": "string",
          "name": "myName",
          "type": "string"
        },
        {
          "internalType": "string",
          "name": "myDescription",
          "type": "string"
        },
        {
          "internalType": "uint256",
          "name": "amount",
          "type": "uint256"
        }
      ],
      "name": "createProject",
      "outputs": [],
      "payable": false,
      "stateMutability": "nonpayable",
      "type": "function"
    }
  ],
  "bytecode": "0x608060405234801561001057600080fd5b5061072a806100206000396000f3fe608060405234801561001057600080fd5b50600436106100365760003560e01c8063107046bd1461003b57806323c55448146101a1575b600080fd5b6100676004803603602081101561005157600080fd5b81019080803590602001909291905050506102fd565b6040518088815260200180602001806020018781526020018681526020018573ffffffffffffffffffffffffffffffffffffffff1673ffffffffffffffffffffffffffffffffffffffff16815260200184151515158152602001838103835289818151815260200191508051906020019080838360005b838110156100f95780820151818401526020810190506100de565b50505050905090810190601f1680156101265780820380516001836020036101000a031916815260200191505b50838103825288818151815260200191508051906020019080838360005b8381101561015f578082015181840152602081019050610144565b50505050905090810190601f16801561018c5780820380516001836020036101000a031916815260200191505b50995050505050505050505060405180910390f35b6102fb600480360360608110156101b757600080fd5b81019080803590602001906401000000008111156101d457600080fd5b8201836020820111156101e657600080fd5b8035906020019184600183028401116401000000008311171561020857600080fd5b91908080601f016020809104026020016040519081016040528093929190818152602001838380828437600081840152601f19601f8201169050808301925050505050505091929192908035906020019064010000000081111561026b57600080fd5b82018360208201111561027d57600080fd5b8035906020019184600183028401116401000000008311171561029f57600080fd5b91908080601f016020809104026020016040519081016040528093929190818152602001838380828437600081840152601f19601f820116905080830192505050505050509192919290803590602001909291905050506104a9565b005b6000818154811061030a57fe5b9060005260206000209060060201600091509050806000015490806001018054600181600116156101000203166002900480601f0160208091040260200160405190810160405280929190818152602001828054600181600116156101000203166002900480156103bc5780601f10610391576101008083540402835291602001916103bc565b820191906000526020600020905b81548152906001019060200180831161039f57829003601f168201915b505050505090806002018054600181600116156101000203166002900480601f01602080910402602001604051908101604052809291908181526020018280546001816001161561010002031660029004801561045a5780601f1061042f5761010080835404028352916020019161045a565b820191906000526020600020905b81548152906001019060200180831161043d57829003601f168201915b5050505050908060030154908060040154908060050160009054906101000a900473ffffffffffffffffffffffffffffffffffffffff16908060050160149054906101000a900460ff16905087565b6104b16105fb565b6040518060e001604052806000805490508152602001858152602001848152602001838152602001600081526020013373ffffffffffffffffffffffffffffffffffffffff16815260200160001515815250905060008190806001815401808255809150509060018203906000526020600020906006020160009091929091909150600082015181600001556020820151816001019080519060200190610559929190610650565b506040820151816002019080519060200190610576929190610650565b50606082015181600301556080820151816004015560a08201518160050160006101000a81548173ffffffffffffffffffffffffffffffffffffffff021916908373ffffffffffffffffffffffffffffffffffffffff16021790555060c08201518160050160146101000a81548160ff02191690831515021790555050505050505050565b6040518060e001604052806000815260200160608152602001606081526020016000815260200160008152602001600073ffffffffffffffffffffffffffffffffffffffff1681526020016000151581525090565b828054600181600116156101000203166002900490600052602060002090601f016020900481019282601f1061069157805160ff19168380011785556106bf565b828001600101855582156106bf579182015b828111156106be5782518255916020019190600101906106a3565b5b5090506106cc91906106d0565b5090565b6106f291905b808211156106ee5760008160009055506001016106d6565b5090565b9056fea265627a7a7231582057e1a64a344ae898a776a96ff393a2b52ed5b35c833f249673b7d466ae5e478664736f6c63430005100032",
  "source": "pragma solidity >=0.4.21 <0.6.0;\r\n\r\ncontract  ClarityInCharity{\r\nProject[] public projects; // same as beneficiary\r\n\r\nstruct Project{\r\n\tuint projectID;\r\n    string name;\r\n    string description;\r\n    uint requiredAmount;\r\n    uint DAPPtokenBalance;\r\n    address Address;\r\n    bool completed;\r\n}\r\n\r\nfunction createProject(string memory myName, string memory myDescription, uint amount) public {\r\nProject memory d = Project(\r\n    {  projectID:projects.length,\r\n       name:myName, \r\n\t   description:myDescription,\r\n\t   requiredAmount:amount,\r\n       DAPPtokenBalance:0,\r\n       Address:msg.sender, \r\n       completed:false});\r\n       projects.push(d);\r\n    }\r\n}\r\n",
  "sourcePath": "C:/Users/Deepi/Desktop/acad/Sem7/IBC/ClarityInCharity/contracts/Project.sol",
  "compiler": {
    "name": "solc",
    "version": "0.5.16+commit.9c3226ce.Emscripten.clang"
  },
  "schemaVersion": "3.2.3",
  "updatedAt": "2021-10-31T13:31:31.404Z",
  "devdoc": {
    "methods": {}
  },
  "userdoc": {
    "methods": {}
  }
}