{
  "contractName": "ClarityInCharity",
  "abi": [
    {
      "constant": true,
      "inputs": [
        {
          "internalType": "uint256",
          "name": "",
          "type": "uint256"
        }
      ],
      "name": "projects",
      "outputs": [
        {
          "internalType": "uint256",
          "name": "projectID",
          "type": "uint256"
        },
        {
          "internalType": "string",
          "name": "name",
          "type": "string"
        },
        {
          "internalType": "string",
          "name": "description",
          "type": "string"
        },
        {
          "internalType": "uint256",
          "name": "requiredAmount",
          "type": "uint256"
        },
        {
          "internalType": "uint256",
          "name": "DAPPtokenBalance",
          "type": "uint256"
        },
        {
          "internalType": "address",
          "name": "Address",
          "type": "address"
        },
        {
          "internalType": "bool",
          "name": "completed",
          "type": "bool"
        }
      ],
      "payable": false,
      "stateMutability": "view",
      "type": "function"
    },
    {
      "constant": false,
      "inputs": [
        {
          "internalType": "string",
          "name": "myName",
          "type": "string"
        },
        {
          "internalType": "string",
          "name": "myDescription",
          "type": "string"
        },
        {
          "internalType": "uint256",
          "name": "amount",
          "type": "uint256"
        }
      ],
      "name": "createProject",
      "outputs": [],
      "payable": false,
      "stateMutability": "nonpayable",
      "type": "function"
    }
  ],
  "bytecode": "0x608060405234801561001057600080fd5b5061066d806100206000396000f3fe608060405234801561001057600080fd5b50600436106100365760003560e01c8063107046bd1461003b57806323c554481461016f575b600080fd5b6100586004803603602081101561005157600080fd5b50356102a0565b604051808881526020018060200180602001878152602001868152602001856001600160a01b03166001600160a01b0316815260200184151515158152602001838103835289818151815260200191508051906020019080838360005b838110156100cd5781810151838201526020016100b5565b50505050905090810190601f1680156100fa5780820380516001836020036101000a031916815260200191505b5083810382528851815288516020918201918a019080838360005b8381101561012d578181015183820152602001610115565b50505050905090810190601f16801561015a5780820380516001836020036101000a031916815260200191505b50995050505050505050505060405180910390f35b61029e6004803603606081101561018557600080fd5b8101906020810181356401000000008111156101a057600080fd5b8201836020820111156101b257600080fd5b803590602001918460018302840111640100000000831117156101d457600080fd5b91908080601f016020809104026020016040519081016040528093929190818152602001838380828437600092019190915250929594936020810193503591505064010000000081111561022757600080fd5b82018360208201111561023957600080fd5b8035906020019184600183028401116401000000008311171561025b57600080fd5b91908080601f0160208091040260200160405190810160405280939291908181526020018383808284376000920191909152509295505091359250610424915050565b005b600081815481106102ad57fe5b9060005260206000209060060201600091509050806000015490806001018054600181600116156101000203166002900480601f01602080910402602001604051908101604052809291908181526020018280546001816001161561010002031660029004801561035f5780601f106103345761010080835404028352916020019161035f565b820191906000526020600020905b81548152906001019060200180831161034257829003601f168201915b50505060028085018054604080516020601f60001961010060018716150201909416959095049283018590048502810185019091528181529596959450909250908301828280156103f15780601f106103c6576101008083540402835291602001916103f1565b820191906000526020600020905b8154815290600101906020018083116103d457829003601f168201915b5050505060038301546004840154600590940154929390929091506001600160a01b03811690600160a01b900460ff1687565b61042c610555565b506040805160e08101825260008054808352602080840188815294840187905260608401869052608084018390523360a085015260c0840183905260018201808455928052835160069092027f290decd9548b62a8d60345a988386fc84ba6bc95484008f6362f93160ef3e5638101928355945180519495939486946104d8937f290decd9548b62a8d60345a988386fc84ba6bc95484008f6362f93160ef3e56490910192019061059d565b50604082015180516104f491600284019160209091019061059d565b50606082015160038201556080820151600482015560a08201516005909101805460c0909301511515600160a01b0260ff60a01b196001600160a01b039093166001600160a01b031990941693909317919091169190911790555050505050565b6040518060e00160405280600081526020016060815260200160608152602001600081526020016000815260200160006001600160a01b031681526020016000151581525090565b828054600181600116156101000203166002900490600052602060002090601f016020900481019282601f106105de57805160ff191683800117855561060b565b8280016001018555821561060b579182015b8281111561060b5782518255916020019190600101906105f0565b5061061792915061061b565b5090565b61063591905b808211156106175760008155600101610621565b9056fea265627a7a72315820425bd9ba55297e3e40307fba318d102b65771902484bfdcad2798b1bd16b5d3064736f6c63430005100032",
  "source": "pragma solidity >=0.4.21 <0.6.0;\r\n\r\ncontract  ClarityInCharity{\r\n    Project[] public projects; // same as beneficiary\r\n\r\n    struct Project{\r\n        uint projectID;\r\n        string name;\r\n        string description;\r\n        uint requiredAmount;\r\n        uint DAPPtokenBalance;\r\n        address Address;\r\n        bool completed;\r\n    }\r\n\r\n    function createProject(string memory myName, string memory myDescription, uint amount) public {\r\n    Project memory d = Project(\r\n        {  projectID:projects.length,\r\n        name:myName, \r\n        description:myDescription,\r\n        requiredAmount:amount,\r\n        DAPPtokenBalance:0,\r\n        Address:msg.sender, \r\n        completed:false});\r\n        projects.push(d);\r\n        }\r\n}\r\n",
  "sourcePath": "C:/Users/Deepi/Desktop/acad/Sem7/IBC/ClarityInCharity/contracts/ClarityInCharity.sol",
  "compiler": {
    "name": "solc",
    "version": "0.5.16+commit.9c3226ce.Emscripten.clang"
  },
  "schemaVersion": "3.2.3",
  "updatedAt": "2021-10-31T13:52:21.914Z",
  "networkType": "ethereum",
  "devdoc": {
    "methods": {}
  },
  "userdoc": {
    "methods": {}
  }
}